{
  "_format": "hh-sol-artifact-1",
  "contractName": "RecordGenerator",
  "sourceName": "contracts/record_generator.sol",
  "abi": [
    {
      "anonymous": false,
      "inputs": [
        {
          "indexed": true,
          "internalType": "address",
          "name": "previousOwner",
          "type": "address"
        },
        {
          "indexed": true,
          "internalType": "address",
          "name": "newOwner",
          "type": "address"
        }
      ],
      "name": "OwnershipTransferred",
      "type": "event"
    },
    {
      "anonymous": false,
      "inputs": [
        {
          "indexed": false,
          "internalType": "uint256",
          "name": "recordId",
          "type": "uint256"
        }
      ],
      "name": "newRecord",
      "type": "event"
    },
    {
      "inputs": [
        {
          "internalType": "string",
          "name": "_name",
          "type": "string"
        },
        {
          "internalType": "string",
          "name": "_dob",
          "type": "string"
        }
      ],
      "name": "createRecord",
      "outputs": [],
      "stateMutability": "nonpayable",
      "type": "function"
    },
    {
      "inputs": [
        {
          "internalType": "address",
          "name": "_owner",
          "type": "address"
        }
      ],
      "name": "getRecordByOwner",
      "outputs": [
        {
          "internalType": "uint256[]",
          "name": "",
          "type": "uint256[]"
        }
      ],
      "stateMutability": "view",
      "type": "function"
    },
    {
      "inputs": [],
      "name": "owner",
      "outputs": [
        {
          "internalType": "address",
          "name": "",
          "type": "address"
        }
      ],
      "stateMutability": "view",
      "type": "function"
    },
    {
      "inputs": [
        {
          "internalType": "uint256",
          "name": "",
          "type": "uint256"
        }
      ],
      "name": "records",
      "outputs": [
        {
          "internalType": "uint256",
          "name": "recordId",
          "type": "uint256"
        },
        {
          "internalType": "string",
          "name": "name",
          "type": "string"
        },
        {
          "internalType": "string",
          "name": "dob",
          "type": "string"
        }
      ],
      "stateMutability": "view",
      "type": "function"
    },
    {
      "inputs": [],
      "name": "renounceOwnership",
      "outputs": [],
      "stateMutability": "nonpayable",
      "type": "function"
    },
    {
      "inputs": [
        {
          "internalType": "address",
          "name": "newOwner",
          "type": "address"
        }
      ],
      "name": "transferOwnership",
      "outputs": [],
      "stateMutability": "nonpayable",
      "type": "function"
    }
  ],
  "bytecode": "0x608060405234801561001057600080fd5b5061002d61002261003260201b60201c565b61003a60201b60201c565b6100fe565b600033905090565b60008060009054906101000a900473ffffffffffffffffffffffffffffffffffffffff169050816000806101000a81548173ffffffffffffffffffffffffffffffffffffffff021916908373ffffffffffffffffffffffffffffffffffffffff1602179055508173ffffffffffffffffffffffffffffffffffffffff168173ffffffffffffffffffffffffffffffffffffffff167f8be0079c531659141344cd1fd0a4f28419497f9722a3daafe3b4186f6b6457e060405160405180910390a35050565b610f298061010d6000396000f3fe608060405234801561001057600080fd5b50600436106100625760003560e01c80633446106714610067578063715018a6146100995780638da5cb5b146100a3578063c090b4df146100c1578063f1d444e1146100dd578063f2fde38b1461010d575b600080fd5b610081600480360381019061007c91906109bc565b610129565b60405161009093929190610bff565b60405180910390f35b6100a1610273565b005b6100ab610287565b6040516100b89190610b67565b60405180910390f35b6100db60048036038101906100d69190610950565b6102b0565b005b6100f760048036038101906100f29190610927565b610485565b6040516101049190610b82565b60405180910390f35b61012760048036038101906101229190610927565b610624565b005b6001818154811061013957600080fd5b906000526020600020906003020160009150905080600001549080600101805461016290610dac565b80601f016020809104026020016040519081016040528092919081815260200182805461018e90610dac565b80156101db5780601f106101b0576101008083540402835291602001916101db565b820191906000526020600020905b8154815290600101906020018083116101be57829003601f168201915b5050505050908060020180546101f090610dac565b80601f016020809104026020016040519081016040528092919081815260200182805461021c90610dac565b80156102695780601f1061023e57610100808354040283529160200191610269565b820191906000526020600020905b81548152906001019060200180831161024c57829003601f168201915b5050505050905083565b61027b6106a8565b6102856000610726565b565b60008060009054906101000a900473ffffffffffffffffffffffffffffffffffffffff16905090565b6000600360003373ffffffffffffffffffffffffffffffffffffffff1673ffffffffffffffffffffffffffffffffffffffff16815260200190815260200160002054146102fc57600080fd5b60016040518060600160405280600180549050815260200184815260200183815250908060018154018082558091505060019003906000526020600020906003020160009091909190915060008201518160000155602082015181600101908051906020019061036d9291906107f2565b50604082015181600201908051906020019061038a9291906107f2565b5050506000600180805490506103a09190610cfa565b9050336002600083815260200190815260200160002060006101000a81548173ffffffffffffffffffffffffffffffffffffffff021916908373ffffffffffffffffffffffffffffffffffffffff160217905550600360003373ffffffffffffffffffffffffffffffffffffffff1673ffffffffffffffffffffffffffffffffffffffff168152602001908152602001600020600081548092919061044490610dde565b91905055507f9cc04ea0a2b1047a24c26f02e72ab2d911b7af9b23498cc1b5cd957be80215c9816040516104789190610be4565b60405180910390a1505050565b60606000600360008473ffffffffffffffffffffffffffffffffffffffff1673ffffffffffffffffffffffffffffffffffffffff1681526020019081526020016000205467ffffffffffffffff811115610508577f4e487b7100000000000000000000000000000000000000000000000000000000600052604160045260246000fd5b6040519080825280602002602001820160405280156105365781602001602082028036833780820191505090505b5090506000805b600180549050811015610619578473ffffffffffffffffffffffffffffffffffffffff166002600083815260200190815260200160002060009054906101000a900473ffffffffffffffffffffffffffffffffffffffff1673ffffffffffffffffffffffffffffffffffffffff16141561060657808383815181106105eb577f4e487b7100000000000000000000000000000000000000000000000000000000600052603260045260246000fd5b602002602001018181525050818061060290610dde565b9250505b808061061190610dde565b91505061053d565b508192505050919050565b61062c6106a8565b600073ffffffffffffffffffffffffffffffffffffffff168173ffffffffffffffffffffffffffffffffffffffff16141561069c576040517f08c379a000000000000000000000000000000000000000000000000000000000815260040161069390610ba4565b60405180910390fd5b6106a581610726565b50565b6106b06107ea565b73ffffffffffffffffffffffffffffffffffffffff166106ce610287565b73ffffffffffffffffffffffffffffffffffffffff1614610724576040517f08c379a000000000000000000000000000000000000000000000000000000000815260040161071b90610bc4565b60405180910390fd5b565b60008060009054906101000a900473ffffffffffffffffffffffffffffffffffffffff169050816000806101000a81548173ffffffffffffffffffffffffffffffffffffffff021916908373ffffffffffffffffffffffffffffffffffffffff1602179055508173ffffffffffffffffffffffffffffffffffffffff168173ffffffffffffffffffffffffffffffffffffffff167f8be0079c531659141344cd1fd0a4f28419497f9722a3daafe3b4186f6b6457e060405160405180910390a35050565b600033905090565b8280546107fe90610dac565b90600052602060002090601f0160209004810192826108205760008555610867565b82601f1061083957805160ff1916838001178555610867565b82800160010185558215610867579182015b8281111561086657825182559160200191906001019061084b565b5b5090506108749190610878565b5090565b5b80821115610891576000816000905550600101610879565b5090565b60006108a86108a384610c75565b610c44565b9050828152602081018484840111156108c057600080fd5b6108cb848285610d6a565b509392505050565b6000813590506108e281610ec5565b92915050565b600082601f8301126108f957600080fd5b8135610909848260208601610895565b91505092915050565b60008135905061092181610edc565b92915050565b60006020828403121561093957600080fd5b6000610947848285016108d3565b91505092915050565b6000806040838503121561096357600080fd5b600083013567ffffffffffffffff81111561097d57600080fd5b610989858286016108e8565b925050602083013567ffffffffffffffff8111156109a657600080fd5b6109b2858286016108e8565b9150509250929050565b6000602082840312156109ce57600080fd5b60006109dc84828501610912565b91505092915050565b60006109f18383610b49565b60208301905092915050565b610a0681610d2e565b82525050565b6000610a1782610cb5565b610a218185610cd8565b9350610a2c83610ca5565b8060005b83811015610a5d578151610a4488826109e5565b9750610a4f83610ccb565b925050600181019050610a30565b5085935050505092915050565b6000610a7582610cc0565b610a7f8185610ce9565b9350610a8f818560208601610d79565b610a9881610eb4565b840191505092915050565b6000610ab0602683610ce9565b91507f4f776e61626c653a206e6577206f776e657220697320746865207a65726f206160008301527f64647265737300000000000000000000000000000000000000000000000000006020830152604082019050919050565b6000610b16602083610ce9565b91507f4f776e61626c653a2063616c6c6572206973206e6f7420746865206f776e65726000830152602082019050919050565b610b5281610d60565b82525050565b610b6181610d60565b82525050565b6000602082019050610b7c60008301846109fd565b92915050565b60006020820190508181036000830152610b9c8184610a0c565b905092915050565b60006020820190508181036000830152610bbd81610aa3565b9050919050565b60006020820190508181036000830152610bdd81610b09565b9050919050565b6000602082019050610bf96000830184610b58565b92915050565b6000606082019050610c146000830186610b58565b8181036020830152610c268185610a6a565b90508181036040830152610c3a8184610a6a565b9050949350505050565b6000604051905081810181811067ffffffffffffffff82111715610c6b57610c6a610e85565b5b8060405250919050565b600067ffffffffffffffff821115610c9057610c8f610e85565b5b601f19601f8301169050602081019050919050565b6000819050602082019050919050565b600081519050919050565b600081519050919050565b6000602082019050919050565b600082825260208201905092915050565b600082825260208201905092915050565b6000610d0582610d60565b9150610d1083610d60565b925082821015610d2357610d22610e27565b5b828203905092915050565b6000610d3982610d40565b9050919050565b600073ffffffffffffffffffffffffffffffffffffffff82169050919050565b6000819050919050565b82818337600083830152505050565b60005b83811015610d97578082015181840152602081019050610d7c565b83811115610da6576000848401525b50505050565b60006002820490506001821680610dc457607f821691505b60208210811415610dd857610dd7610e56565b5b50919050565b6000610de982610d60565b91507fffffffffffffffffffffffffffffffffffffffffffffffffffffffffffffffff821415610e1c57610e1b610e27565b5b600182019050919050565b7f4e487b7100000000000000000000000000000000000000000000000000000000600052601160045260246000fd5b7f4e487b7100000000000000000000000000000000000000000000000000000000600052602260045260246000fd5b7f4e487b7100000000000000000000000000000000000000000000000000000000600052604160045260246000fd5b6000601f19601f8301169050919050565b610ece81610d2e565b8114610ed957600080fd5b50565b610ee581610d60565b8114610ef057600080fd5b5056fea264697066735822122099ff6c02aaf70147cf2163e769303d5b1a9c620692241e9d3029b65f096475d564736f6c63430008000033",
  "linkReferences": {},
  "deployedLinkReferences": {}
}