{
  "_format": "hh-sol-artifact-1",
  "contractName": "RecordHelper",
  "sourceName": "contracts/record_helper.sol",
  "abi": [
    {
      "anonymous": false,
      "inputs": [
        {
          "indexed": true,
          "internalType": "address",
          "name": "previousOwner",
          "type": "address"
        },
        {
          "indexed": true,
          "internalType": "address",
          "name": "newOwner",
          "type": "address"
        }
      ],
      "name": "OwnershipTransferred",
      "type": "event"
    },
    {
      "anonymous": false,
      "inputs": [
        {
          "indexed": false,
          "internalType": "uint256",
          "name": "recordId",
          "type": "uint256"
        }
      ],
      "name": "newRecord",
      "type": "event"
    },
    {
      "inputs": [
        {
          "internalType": "uint256",
          "name": "_recordId",
          "type": "uint256"
        },
        {
          "internalType": "address",
          "name": "_approvedAddress",
          "type": "address"
        }
      ],
      "name": "addApproved",
      "outputs": [],
      "stateMutability": "nonpayable",
      "type": "function"
    },
    {
      "inputs": [
        {
          "internalType": "string",
          "name": "_name",
          "type": "string"
        },
        {
          "internalType": "string",
          "name": "_dob",
          "type": "string"
        }
      ],
      "name": "createRecord",
      "outputs": [],
      "stateMutability": "nonpayable",
      "type": "function"
    },
    {
      "inputs": [
        {
          "internalType": "address",
          "name": "_owner",
          "type": "address"
        }
      ],
      "name": "getRecordByOwner",
      "outputs": [
        {
          "internalType": "uint256[]",
          "name": "",
          "type": "uint256[]"
        }
      ],
      "stateMutability": "view",
      "type": "function"
    },
    {
      "inputs": [],
      "name": "owner",
      "outputs": [
        {
          "internalType": "address",
          "name": "",
          "type": "address"
        }
      ],
      "stateMutability": "view",
      "type": "function"
    },
    {
      "inputs": [
        {
          "internalType": "uint256",
          "name": "",
          "type": "uint256"
        }
      ],
      "name": "records",
      "outputs": [
        {
          "internalType": "uint256",
          "name": "recordId",
          "type": "uint256"
        },
        {
          "internalType": "string",
          "name": "name",
          "type": "string"
        },
        {
          "internalType": "string",
          "name": "dob",
          "type": "string"
        }
      ],
      "stateMutability": "view",
      "type": "function"
    },
    {
      "inputs": [],
      "name": "renounceOwnership",
      "outputs": [],
      "stateMutability": "nonpayable",
      "type": "function"
    },
    {
      "inputs": [
        {
          "internalType": "address",
          "name": "newOwner",
          "type": "address"
        }
      ],
      "name": "transferOwnership",
      "outputs": [],
      "stateMutability": "nonpayable",
      "type": "function"
    }
  ],
  "bytecode": "0x608060405234801561001057600080fd5b5061002d61002261003260201b60201c565b61003a60201b60201c565b6100fe565b600033905090565b60008060009054906101000a900473ffffffffffffffffffffffffffffffffffffffff169050816000806101000a81548173ffffffffffffffffffffffffffffffffffffffff021916908373ffffffffffffffffffffffffffffffffffffffff1602179055508173ffffffffffffffffffffffffffffffffffffffff168173ffffffffffffffffffffffffffffffffffffffff167f8be0079c531659141344cd1fd0a4f28419497f9722a3daafe3b4186f6b6457e060405160405180910390a35050565b6110818061010d6000396000f3fe608060405234801561001057600080fd5b506004361061007d5760003560e01c80638da5cb5b1161005b5780638da5cb5b146100da578063c090b4df146100f8578063f1d444e114610114578063f2fde38b146101445761007d565b80633446106714610082578063715018a6146100b457806381be36d0146100be575b600080fd5b61009c60048036038101906100979190610ad8565b610160565b6040516100ab93929190610d57565b60405180910390f35b6100bc6102aa565b005b6100d860048036038101906100d39190610b01565b6102be565b005b6100e26103a3565b6040516100ef9190610cbf565b60405180910390f35b610112600480360381019061010d9190610a6c565b6103cc565b005b61012e60048036038101906101299190610a43565b6105a1565b60405161013b9190610cda565b60405180910390f35b61015e60048036038101906101599190610a43565b610740565b005b6001818154811061017057600080fd5b906000526020600020906003020160009150905080600001549080600101805461019990610f04565b80601f01602080910402602001604051908101604052809291908181526020018280546101c590610f04565b80156102125780601f106101e757610100808354040283529160200191610212565b820191906000526020600020905b8154815290600101906020018083116101f557829003601f168201915b50505050509080600201805461022790610f04565b80601f016020809104026020016040519081016040528092919081815260200182805461025390610f04565b80156102a05780601f10610275576101008083540402835291602001916102a0565b820191906000526020600020905b81548152906001019060200180831161028357829003601f168201915b5050505050905083565b6102b26107c4565b6102bc6000610842565b565b816002600082815260200190815260200160002060009054906101000a900473ffffffffffffffffffffffffffffffffffffffff1673ffffffffffffffffffffffffffffffffffffffff163373ffffffffffffffffffffffffffffffffffffffff161461032a57600080fd5b60046000848152602001908152602001600020829080600181540180825580915050600190039060005260206000200160009091909190916101000a81548173ffffffffffffffffffffffffffffffffffffffff021916908373ffffffffffffffffffffffffffffffffffffffff160217905550505050565b60008060009054906101000a900473ffffffffffffffffffffffffffffffffffffffff16905090565b6000600360003373ffffffffffffffffffffffffffffffffffffffff1673ffffffffffffffffffffffffffffffffffffffff168152602001908152602001600020541461041857600080fd5b60016040518060600160405280600180549050815260200184815260200183815250908060018154018082558091505060019003906000526020600020906003020160009091909190915060008201518160000155602082015181600101908051906020019061048992919061090e565b5060408201518160020190805190602001906104a692919061090e565b5050506000600180805490506104bc9190610e52565b9050336002600083815260200190815260200160002060006101000a81548173ffffffffffffffffffffffffffffffffffffffff021916908373ffffffffffffffffffffffffffffffffffffffff160217905550600360003373ffffffffffffffffffffffffffffffffffffffff1673ffffffffffffffffffffffffffffffffffffffff168152602001908152602001600020600081548092919061056090610f36565b91905055507f9cc04ea0a2b1047a24c26f02e72ab2d911b7af9b23498cc1b5cd957be80215c9816040516105949190610d3c565b60405180910390a1505050565b60606000600360008473ffffffffffffffffffffffffffffffffffffffff1673ffffffffffffffffffffffffffffffffffffffff1681526020019081526020016000205467ffffffffffffffff811115610624577f4e487b7100000000000000000000000000000000000000000000000000000000600052604160045260246000fd5b6040519080825280602002602001820160405280156106525781602001602082028036833780820191505090505b5090506000805b600180549050811015610735578473ffffffffffffffffffffffffffffffffffffffff166002600083815260200190815260200160002060009054906101000a900473ffffffffffffffffffffffffffffffffffffffff1673ffffffffffffffffffffffffffffffffffffffff1614156107225780838381518110610707577f4e487b7100000000000000000000000000000000000000000000000000000000600052603260045260246000fd5b602002602001018181525050818061071e90610f36565b9250505b808061072d90610f36565b915050610659565b508192505050919050565b6107486107c4565b600073ffffffffffffffffffffffffffffffffffffffff168173ffffffffffffffffffffffffffffffffffffffff1614156107b8576040517f08c379a00000000000000000000000000000000000000000000000000000000081526004016107af90610cfc565b60405180910390fd5b6107c181610842565b50565b6107cc610906565b73ffffffffffffffffffffffffffffffffffffffff166107ea6103a3565b73ffffffffffffffffffffffffffffffffffffffff1614610840576040517f08c379a000000000000000000000000000000000000000000000000000000000815260040161083790610d1c565b60405180910390fd5b565b60008060009054906101000a900473ffffffffffffffffffffffffffffffffffffffff169050816000806101000a81548173ffffffffffffffffffffffffffffffffffffffff021916908373ffffffffffffffffffffffffffffffffffffffff1602179055508173ffffffffffffffffffffffffffffffffffffffff168173ffffffffffffffffffffffffffffffffffffffff167f8be0079c531659141344cd1fd0a4f28419497f9722a3daafe3b4186f6b6457e060405160405180910390a35050565b600033905090565b82805461091a90610f04565b90600052602060002090601f01602090048101928261093c5760008555610983565b82601f1061095557805160ff1916838001178555610983565b82800160010185558215610983579182015b82811115610982578251825591602001919060010190610967565b5b5090506109909190610994565b5090565b5b808211156109ad576000816000905550600101610995565b5090565b60006109c46109bf84610dcd565b610d9c565b9050828152602081018484840111156109dc57600080fd5b6109e7848285610ec2565b509392505050565b6000813590506109fe8161101d565b92915050565b600082601f830112610a1557600080fd5b8135610a258482602086016109b1565b91505092915050565b600081359050610a3d81611034565b92915050565b600060208284031215610a5557600080fd5b6000610a63848285016109ef565b91505092915050565b60008060408385031215610a7f57600080fd5b600083013567ffffffffffffffff811115610a9957600080fd5b610aa585828601610a04565b925050602083013567ffffffffffffffff811115610ac257600080fd5b610ace85828601610a04565b9150509250929050565b600060208284031215610aea57600080fd5b6000610af884828501610a2e565b91505092915050565b60008060408385031215610b1457600080fd5b6000610b2285828601610a2e565b9250506020610b33858286016109ef565b9150509250929050565b6000610b498383610ca1565b60208301905092915050565b610b5e81610e86565b82525050565b6000610b6f82610e0d565b610b798185610e30565b9350610b8483610dfd565b8060005b83811015610bb5578151610b9c8882610b3d565b9750610ba783610e23565b925050600181019050610b88565b5085935050505092915050565b6000610bcd82610e18565b610bd78185610e41565b9350610be7818560208601610ed1565b610bf08161100c565b840191505092915050565b6000610c08602683610e41565b91507f4f776e61626c653a206e6577206f776e657220697320746865207a65726f206160008301527f64647265737300000000000000000000000000000000000000000000000000006020830152604082019050919050565b6000610c6e602083610e41565b91507f4f776e61626c653a2063616c6c6572206973206e6f7420746865206f776e65726000830152602082019050919050565b610caa81610eb8565b82525050565b610cb981610eb8565b82525050565b6000602082019050610cd46000830184610b55565b92915050565b60006020820190508181036000830152610cf48184610b64565b905092915050565b60006020820190508181036000830152610d1581610bfb565b9050919050565b60006020820190508181036000830152610d3581610c61565b9050919050565b6000602082019050610d516000830184610cb0565b92915050565b6000606082019050610d6c6000830186610cb0565b8181036020830152610d7e8185610bc2565b90508181036040830152610d928184610bc2565b9050949350505050565b6000604051905081810181811067ffffffffffffffff82111715610dc357610dc2610fdd565b5b8060405250919050565b600067ffffffffffffffff821115610de857610de7610fdd565b5b601f19601f8301169050602081019050919050565b6000819050602082019050919050565b600081519050919050565b600081519050919050565b6000602082019050919050565b600082825260208201905092915050565b600082825260208201905092915050565b6000610e5d82610eb8565b9150610e6883610eb8565b925082821015610e7b57610e7a610f7f565b5b828203905092915050565b6000610e9182610e98565b9050919050565b600073ffffffffffffffffffffffffffffffffffffffff82169050919050565b6000819050919050565b82818337600083830152505050565b60005b83811015610eef578082015181840152602081019050610ed4565b83811115610efe576000848401525b50505050565b60006002820490506001821680610f1c57607f821691505b60208210811415610f3057610f2f610fae565b5b50919050565b6000610f4182610eb8565b91507fffffffffffffffffffffffffffffffffffffffffffffffffffffffffffffffff821415610f7457610f73610f7f565b5b600182019050919050565b7f4e487b7100000000000000000000000000000000000000000000000000000000600052601160045260246000fd5b7f4e487b7100000000000000000000000000000000000000000000000000000000600052602260045260246000fd5b7f4e487b7100000000000000000000000000000000000000000000000000000000600052604160045260246000fd5b6000601f19601f8301169050919050565b61102681610e86565b811461103157600080fd5b50565b61103d81610eb8565b811461104857600080fd5b5056fea2646970667358221220b12a5e98950bacec41309d1b09fcf247ee5163e7c26405e71beaf4ea42a961bd64736f6c63430008000033",
  "linkReferences": {},
  "deployedLinkReferences": {}
}